{"contracts/GuessVerifier.sol":{"MasterMindVerifier":{"abi":[{"inputs":[{"internalType":"address","name":"_verifier","type":"address"}],"stateMutability":"nonpayable","type":"constructor"},{"inputs":[{"internalType":"uint256[2]","name":"a","type":"uint256[2]"},{"internalType":"uint256[2][2]","name":"b","type":"uint256[2][2]"},{"internalType":"uint256[2]","name":"c","type":"uint256[2]"},{"internalType":"uint256[8]","name":"input","type":"uint256[8]"}],"name":"verifyHint","outputs":[{"internalType":"bool","name":"r","type":"bool"}],"stateMutability":"view","type":"function"}],"evm":{"bytecode":{"linkReferences":{},"object":"608060405234801561001057600080fd5b506040516108b43803806108b4833981810160405281019061003291906100db565b806000806101000a81548173ffffffffffffffffffffffffffffffffffffffff021916908373ffffffffffffffffffffffffffffffffffffffff16021790555050610108565b600080fd5b600073ffffffffffffffffffffffffffffffffffffffff82169050919050565b60006100a88261007d565b9050919050565b6100b88161009d565b81146100c357600080fd5b50565b6000815190506100d5816100af565b92915050565b6000602082840312156100f1576100f0610078565b5b60006100ff848285016100c6565b91505092915050565b61079d806101176000396000f3fe608060405234801561001057600080fd5b506004361061002b5760003560e01c8063df870d5314610030575b600080fd5b61004a600480360381019061004591906103fb565b610060565b604051610057919061047f565b60405180910390f35b60008060009054906101000a900473ffffffffffffffffffffffffffffffffffffffff1673ffffffffffffffffffffffffffffffffffffffff1663c9219a7a868686866040518563ffffffff1660e01b81526004016100c294939291906106c7565b602060405180830381865afa1580156100df573d6000803e3d6000fd5b505050506040513d601f19601f82011682018060405250810190610103919061073a565b9050949350505050565b6000604051905090565b600080fd5b600080fd5b6000601f19601f8301169050919050565b7f4e487b7100000000000000000000000000000000000000000000000000000000600052604160045260246000fd5b61016a82610121565b810181811067ffffffffffffffff8211171561018957610188610132565b5b80604052505050565b600061019c61010d565b90506101a88282610161565b919050565b600067ffffffffffffffff8211156101c8576101c7610132565b5b602082029050919050565b600080fd5b6000819050919050565b6101eb816101d8565b81146101f657600080fd5b50565b600081359050610208816101e2565b92915050565b600061022161021c846101ad565b610192565b9050806020840283018581111561023b5761023a6101d3565b5b835b81811015610264578061025088826101f9565b84526020840193505060208101905061023d565b5050509392505050565b600082601f8301126102835761028261011c565b5b600261029084828561020e565b91505092915050565b600067ffffffffffffffff8211156102b4576102b3610132565b5b602082029050919050565b60006102d26102cd84610299565b610192565b905080604084028301858111156102ec576102eb6101d3565b5b835b818110156103155780610301888261026e565b8452602084019350506040810190506102ee565b5050509392505050565b600082601f8301126103345761033361011c565b5b60026103418482856102bf565b91505092915050565b600067ffffffffffffffff82111561036557610364610132565b5b602082029050919050565b600061038361037e8461034a565b610192565b9050806020840283018581111561039d5761039c6101d3565b5b835b818110156103c657806103b288826101f9565b84526020840193505060208101905061039f565b5050509392505050565b600082601f8301126103e5576103e461011c565b5b60086103f2848285610370565b91505092915050565b600080600080610200858703121561041657610415610117565b5b60006104248782880161026e565b94505060406104358782880161031f565b93505060c06104468782880161026e565b925050610100610458878288016103d0565b91505092959194509250565b60008115159050919050565b61047981610464565b82525050565b60006020820190506104946000830184610470565b92915050565b600060029050919050565b600081905092915050565b6000819050919050565b6104c3816101d8565b82525050565b60006104d583836104ba565b60208301905092915050565b6000602082019050919050565b6104f78161049a565b61050181846104a5565b925061050c826104b0565b8060005b8381101561053d57815161052487826104c9565b965061052f836104e1565b925050600181019050610510565b505050505050565b600060029050919050565b600081905092915050565b6000819050919050565b600081905092915050565b6105798161049a565b6105838184610565565b925061058e826104b0565b8060005b838110156105bf5781516105a687826104c9565b96506105b1836104e1565b925050600181019050610592565b505050505050565b60006105d38383610570565b60408301905092915050565b6000602082019050919050565b6105f581610545565b6105ff8184610550565b925061060a8261055b565b8060005b8381101561063b57815161062287826105c7565b965061062d836105df565b92505060018101905061060e565b505050505050565b600060089050919050565b600081905092915050565b6000819050919050565b6000602082019050919050565b61067981610643565b610683818461064e565b925061068e82610659565b8060005b838110156106bf5781516106a687826104c9565b96506106b183610663565b925050600181019050610692565b505050505050565b6000610200820190506106dd60008301876104ee565b6106ea60408301866105ec565b6106f760c08301856104ee565b610705610100830184610670565b95945050505050565b61071781610464565b811461072257600080fd5b50565b6000815190506107348161070e565b92915050565b6000602082840312156107505761074f610117565b5b600061075e84828501610725565b9150509291505056fea264697066735822122089600c64f4948c3daffa44395189d123433b8dce33010e18fefdb7d6f2b562f464736f6c63430008120033","opcodes":"PUSH1 0x80 PUSH1 0x40 MSTORE CALLVALUE DUP1 ISZERO PUSH2 0x10 JUMPI PUSH1 0x0 DUP1 REVERT JUMPDEST POP PUSH1 0x40 MLOAD PUSH2 0x8B4 CODESIZE SUB DUP1 PUSH2 0x8B4 DUP4 CODECOPY DUP2 DUP2 ADD PUSH1 0x40 MSTORE DUP2 ADD SWAP1 PUSH2 0x32 SWAP2 SWAP1 PUSH2 0xDB JUMP JUMPDEST DUP1 PUSH1 0x0 DUP1 PUSH2 0x100 EXP DUP2 SLOAD DUP2 PUSH20 0xFFFFFFFFFFFFFFFFFFFFFFFFFFFFFFFFFFFFFFFF MUL NOT AND SWAP1 DUP4 PUSH20 0xFFFFFFFFFFFFFFFFFFFFFFFFFFFFFFFFFFFFFFFF AND MUL OR SWAP1 SSTORE POP POP PUSH2 0x108 JUMP JUMPDEST PUSH1 0x0 DUP1 REVERT JUMPDEST PUSH1 0x0 PUSH20 0xFFFFFFFFFFFFFFFFFFFFFFFFFFFFFFFFFFFFFFFF DUP3 AND SWAP1 POP SWAP2 SWAP1 POP JUMP JUMPDEST PUSH1 0x0 PUSH2 0xA8 DUP3 PUSH2 0x7D JUMP JUMPDEST SWAP1 POP SWAP2 SWAP1 POP JUMP JUMPDEST PUSH2 0xB8 DUP2 PUSH2 0x9D JUMP JUMPDEST DUP2 EQ PUSH2 0xC3 JUMPI PUSH1 0x0 DUP1 REVERT JUMPDEST POP JUMP JUMPDEST PUSH1 0x0 DUP2 MLOAD SWAP1 POP PUSH2 0xD5 DUP2 PUSH2 0xAF JUMP JUMPDEST SWAP3 SWAP2 POP POP JUMP JUMPDEST PUSH1 0x0 PUSH1 0x20 DUP3 DUP5 SUB SLT ISZERO PUSH2 0xF1 JUMPI PUSH2 0xF0 PUSH2 0x78 JUMP JUMPDEST JUMPDEST PUSH1 0x0 PUSH2 0xFF DUP5 DUP3 DUP6 ADD PUSH2 0xC6 JUMP JUMPDEST SWAP2 POP POP SWAP3 SWAP2 POP POP JUMP JUMPDEST PUSH2 0x79D DUP1 PUSH2 0x117 PUSH1 0x0 CODECOPY PUSH1 0x0 RETURN INVALID PUSH1 0x80 PUSH1 0x40 MSTORE CALLVALUE DUP1 ISZERO PUSH2 0x10 JUMPI PUSH1 0x0 DUP1 REVERT JUMPDEST POP PUSH1 0x4 CALLDATASIZE LT PUSH2 0x2B JUMPI PUSH1 0x0 CALLDATALOAD PUSH1 0xE0 SHR DUP1 PUSH4 0xDF870D53 EQ PUSH2 0x30 JUMPI JUMPDEST PUSH1 0x0 DUP1 REVERT JUMPDEST PUSH2 0x4A PUSH1 0x4 DUP1 CALLDATASIZE SUB DUP2 ADD SWAP1 PUSH2 0x45 SWAP2 SWAP1 PUSH2 0x3FB JUMP JUMPDEST PUSH2 0x60 JUMP JUMPDEST PUSH1 0x40 MLOAD PUSH2 0x57 SWAP2 SWAP1 PUSH2 0x47F JUMP JUMPDEST PUSH1 0x40 MLOAD DUP1 SWAP2 SUB SWAP1 RETURN JUMPDEST PUSH1 0x0 DUP1 PUSH1 0x0 SWAP1 SLOAD SWAP1 PUSH2 0x100 EXP SWAP1 DIV PUSH20 0xFFFFFFFFFFFFFFFFFFFFFFFFFFFFFFFFFFFFFFFF AND PUSH20 0xFFFFFFFFFFFFFFFFFFFFFFFFFFFFFFFFFFFFFFFF AND PUSH4 0xC9219A7A DUP7 DUP7 DUP7 DUP7 PUSH1 0x40 MLOAD DUP6 PUSH4 0xFFFFFFFF AND PUSH1 0xE0 SHL DUP2 MSTORE PUSH1 0x4 ADD PUSH2 0xC2 SWAP5 SWAP4 SWAP3 SWAP2 SWAP1 PUSH2 0x6C7 JUMP JUMPDEST PUSH1 0x20 PUSH1 0x40 MLOAD DUP1 DUP4 SUB DUP2 DUP7 GAS STATICCALL ISZERO DUP1 ISZERO PUSH2 0xDF JUMPI RETURNDATASIZE PUSH1 0x0 DUP1 RETURNDATACOPY RETURNDATASIZE PUSH1 0x0 REVERT JUMPDEST POP POP POP POP PUSH1 0x40 MLOAD RETURNDATASIZE PUSH1 0x1F NOT PUSH1 0x1F DUP3 ADD AND DUP3 ADD DUP1 PUSH1 0x40 MSTORE POP DUP2 ADD SWAP1 PUSH2 0x103 SWAP2 SWAP1 PUSH2 0x73A JUMP JUMPDEST SWAP1 POP SWAP5 SWAP4 POP POP POP POP JUMP JUMPDEST PUSH1 0x0 PUSH1 0x40 MLOAD SWAP1 POP SWAP1 JUMP JUMPDEST PUSH1 0x0 DUP1 REVERT JUMPDEST PUSH1 0x0 DUP1 REVERT JUMPDEST PUSH1 0x0 PUSH1 0x1F NOT PUSH1 0x1F DUP4 ADD AND SWAP1 POP SWAP2 SWAP1 POP JUMP JUMPDEST PUSH32 0x4E487B7100000000000000000000000000000000000000000000000000000000 PUSH1 0x0 MSTORE PUSH1 0x41 PUSH1 0x4 MSTORE PUSH1 0x24 PUSH1 0x0 REVERT JUMPDEST PUSH2 0x16A DUP3 PUSH2 0x121 JUMP JUMPDEST DUP2 ADD DUP2 DUP2 LT PUSH8 0xFFFFFFFFFFFFFFFF DUP3 GT OR ISZERO PUSH2 0x189 JUMPI PUSH2 0x188 PUSH2 0x132 JUMP JUMPDEST JUMPDEST DUP1 PUSH1 0x40 MSTORE POP POP POP JUMP JUMPDEST PUSH1 0x0 PUSH2 0x19C PUSH2 0x10D JUMP JUMPDEST SWAP1 POP PUSH2 0x1A8 DUP3 DUP3 PUSH2 0x161 JUMP JUMPDEST SWAP2 SWAP1 POP JUMP JUMPDEST PUSH1 0x0 PUSH8 0xFFFFFFFFFFFFFFFF DUP3 GT ISZERO PUSH2 0x1C8 JUMPI PUSH2 0x1C7 PUSH2 0x132 JUMP JUMPDEST JUMPDEST PUSH1 0x20 DUP3 MUL SWAP1 POP SWAP2 SWAP1 POP JUMP JUMPDEST PUSH1 0x0 DUP1 REVERT JUMPDEST PUSH1 0x0 DUP2 SWAP1 POP SWAP2 SWAP1 POP JUMP JUMPDEST PUSH2 0x1EB DUP2 PUSH2 0x1D8 JUMP JUMPDEST DUP2 EQ PUSH2 0x1F6 JUMPI PUSH1 0x0 DUP1 REVERT JUMPDEST POP JUMP JUMPDEST PUSH1 0x0 DUP2 CALLDATALOAD SWAP1 POP PUSH2 0x208 DUP2 PUSH2 0x1E2 JUMP JUMPDEST SWAP3 SWAP2 POP POP JUMP JUMPDEST PUSH1 0x0 PUSH2 0x221 PUSH2 0x21C DUP5 PUSH2 0x1AD JUMP JUMPDEST PUSH2 0x192 JUMP JUMPDEST SWAP1 POP DUP1 PUSH1 0x20 DUP5 MUL DUP4 ADD DUP6 DUP2 GT ISZERO PUSH2 0x23B JUMPI PUSH2 0x23A PUSH2 0x1D3 JUMP JUMPDEST JUMPDEST DUP4 JUMPDEST DUP2 DUP2 LT ISZERO PUSH2 0x264 JUMPI DUP1 PUSH2 0x250 DUP9 DUP3 PUSH2 0x1F9 JUMP JUMPDEST DUP5 MSTORE PUSH1 0x20 DUP5 ADD SWAP4 POP POP PUSH1 0x20 DUP2 ADD SWAP1 POP PUSH2 0x23D JUMP JUMPDEST POP POP POP SWAP4 SWAP3 POP POP POP JUMP JUMPDEST PUSH1 0x0 DUP3 PUSH1 0x1F DUP4 ADD SLT PUSH2 0x283 JUMPI PUSH2 0x282 PUSH2 0x11C JUMP JUMPDEST JUMPDEST PUSH1 0x2 PUSH2 0x290 DUP5 DUP3 DUP6 PUSH2 0x20E JUMP JUMPDEST SWAP2 POP POP SWAP3 SWAP2 POP POP JUMP JUMPDEST PUSH1 0x0 PUSH8 0xFFFFFFFFFFFFFFFF DUP3 GT ISZERO PUSH2 0x2B4 JUMPI PUSH2 0x2B3 PUSH2 0x132 JUMP JUMPDEST JUMPDEST PUSH1 0x20 DUP3 MUL SWAP1 POP SWAP2 SWAP1 POP JUMP JUMPDEST PUSH1 0x0 PUSH2 0x2D2 PUSH2 0x2CD DUP5 PUSH2 0x299 JUMP JUMPDEST PUSH2 0x192 JUMP JUMPDEST SWAP1 POP DUP1 PUSH1 0x40 DUP5 MUL DUP4 ADD DUP6 DUP2 GT ISZERO PUSH2 0x2EC JUMPI PUSH2 0x2EB PUSH2 0x1D3 JUMP JUMPDEST JUMPDEST DUP4 JUMPDEST DUP2 DUP2 LT ISZERO PUSH2 0x315 JUMPI DUP1 PUSH2 0x301 DUP9 DUP3 PUSH2 0x26E JUMP JUMPDEST DUP5 MSTORE PUSH1 0x20 DUP5 ADD SWAP4 POP POP PUSH1 0x40 DUP2 ADD SWAP1 POP PUSH2 0x2EE JUMP JUMPDEST POP POP POP SWAP4 SWAP3 POP POP POP JUMP JUMPDEST PUSH1 0x0 DUP3 PUSH1 0x1F DUP4 ADD SLT PUSH2 0x334 JUMPI PUSH2 0x333 PUSH2 0x11C JUMP JUMPDEST JUMPDEST PUSH1 0x2 PUSH2 0x341 DUP5 DUP3 DUP6 PUSH2 0x2BF JUMP JUMPDEST SWAP2 POP POP SWAP3 SWAP2 POP POP JUMP JUMPDEST PUSH1 0x0 PUSH8 0xFFFFFFFFFFFFFFFF DUP3 GT ISZERO PUSH2 0x365 JUMPI PUSH2 0x364 PUSH2 0x132 JUMP JUMPDEST JUMPDEST PUSH1 0x20 DUP3 MUL SWAP1 POP SWAP2 SWAP1 POP JUMP JUMPDEST PUSH1 0x0 PUSH2 0x383 PUSH2 0x37E DUP5 PUSH2 0x34A JUMP JUMPDEST PUSH2 0x192 JUMP JUMPDEST SWAP1 POP DUP1 PUSH1 0x20 DUP5 MUL DUP4 ADD DUP6 DUP2 GT ISZERO PUSH2 0x39D JUMPI PUSH2 0x39C PUSH2 0x1D3 JUMP JUMPDEST JUMPDEST DUP4 JUMPDEST DUP2 DUP2 LT ISZERO PUSH2 0x3C6 JUMPI DUP1 PUSH2 0x3B2 DUP9 DUP3 PUSH2 0x1F9 JUMP JUMPDEST DUP5 MSTORE PUSH1 0x20 DUP5 ADD SWAP4 POP POP PUSH1 0x20 DUP2 ADD SWAP1 POP PUSH2 0x39F JUMP JUMPDEST POP POP POP SWAP4 SWAP3 POP POP POP JUMP JUMPDEST PUSH1 0x0 DUP3 PUSH1 0x1F DUP4 ADD SLT PUSH2 0x3E5 JUMPI PUSH2 0x3E4 PUSH2 0x11C JUMP JUMPDEST JUMPDEST PUSH1 0x8 PUSH2 0x3F2 DUP5 DUP3 DUP6 PUSH2 0x370 JUMP JUMPDEST SWAP2 POP POP SWAP3 SWAP2 POP POP JUMP JUMPDEST PUSH1 0x0 DUP1 PUSH1 0x0 DUP1 PUSH2 0x200 DUP6 DUP8 SUB SLT ISZERO PUSH2 0x416 JUMPI PUSH2 0x415 PUSH2 0x117 JUMP JUMPDEST JUMPDEST PUSH1 0x0 PUSH2 0x424 DUP8 DUP3 DUP9 ADD PUSH2 0x26E JUMP JUMPDEST SWAP5 POP POP PUSH1 0x40 PUSH2 0x435 DUP8 DUP3 DUP9 ADD PUSH2 0x31F JUMP JUMPDEST SWAP4 POP POP PUSH1 0xC0 PUSH2 0x446 DUP8 DUP3 DUP9 ADD PUSH2 0x26E JUMP JUMPDEST SWAP3 POP POP PUSH2 0x100 PUSH2 0x458 DUP8 DUP3 DUP9 ADD PUSH2 0x3D0 JUMP JUMPDEST SWAP2 POP POP SWAP3 SWAP6 SWAP2 SWAP5 POP SWAP3 POP JUMP JUMPDEST PUSH1 0x0 DUP2 ISZERO ISZERO SWAP1 POP SWAP2 SWAP1 POP JUMP JUMPDEST PUSH2 0x479 DUP2 PUSH2 0x464 JUMP JUMPDEST DUP3 MSTORE POP POP JUMP JUMPDEST PUSH1 0x0 PUSH1 0x20 DUP3 ADD SWAP1 POP PUSH2 0x494 PUSH1 0x0 DUP4 ADD DUP5 PUSH2 0x470 JUMP JUMPDEST SWAP3 SWAP2 POP POP JUMP JUMPDEST PUSH1 0x0 PUSH1 0x2 SWAP1 POP SWAP2 SWAP1 POP JUMP JUMPDEST PUSH1 0x0 DUP2 SWAP1 POP SWAP3 SWAP2 POP POP JUMP JUMPDEST PUSH1 0x0 DUP2 SWAP1 POP SWAP2 SWAP1 POP JUMP JUMPDEST PUSH2 0x4C3 DUP2 PUSH2 0x1D8 JUMP JUMPDEST DUP3 MSTORE POP POP JUMP JUMPDEST PUSH1 0x0 PUSH2 0x4D5 DUP4 DUP4 PUSH2 0x4BA JUMP JUMPDEST PUSH1 0x20 DUP4 ADD SWAP1 POP SWAP3 SWAP2 POP POP JUMP JUMPDEST PUSH1 0x0 PUSH1 0x20 DUP3 ADD SWAP1 POP SWAP2 SWAP1 POP JUMP JUMPDEST PUSH2 0x4F7 DUP2 PUSH2 0x49A JUMP JUMPDEST PUSH2 0x501 DUP2 DUP5 PUSH2 0x4A5 JUMP JUMPDEST SWAP3 POP PUSH2 0x50C DUP3 PUSH2 0x4B0 JUMP JUMPDEST DUP1 PUSH1 0x0 JUMPDEST DUP4 DUP2 LT ISZERO PUSH2 0x53D JUMPI DUP2 MLOAD PUSH2 0x524 DUP8 DUP3 PUSH2 0x4C9 JUMP JUMPDEST SWAP7 POP PUSH2 0x52F DUP4 PUSH2 0x4E1 JUMP JUMPDEST SWAP3 POP POP PUSH1 0x1 DUP2 ADD SWAP1 POP PUSH2 0x510 JUMP JUMPDEST POP POP POP POP POP POP JUMP JUMPDEST PUSH1 0x0 PUSH1 0x2 SWAP1 POP SWAP2 SWAP1 POP JUMP JUMPDEST PUSH1 0x0 DUP2 SWAP1 POP SWAP3 SWAP2 POP POP JUMP JUMPDEST PUSH1 0x0 DUP2 SWAP1 POP SWAP2 SWAP1 POP JUMP JUMPDEST PUSH1 0x0 DUP2 SWAP1 POP SWAP3 SWAP2 POP POP JUMP JUMPDEST PUSH2 0x579 DUP2 PUSH2 0x49A JUMP JUMPDEST PUSH2 0x583 DUP2 DUP5 PUSH2 0x565 JUMP JUMPDEST SWAP3 POP PUSH2 0x58E DUP3 PUSH2 0x4B0 JUMP JUMPDEST DUP1 PUSH1 0x0 JUMPDEST DUP4 DUP2 LT ISZERO PUSH2 0x5BF JUMPI DUP2 MLOAD PUSH2 0x5A6 DUP8 DUP3 PUSH2 0x4C9 JUMP JUMPDEST SWAP7 POP PUSH2 0x5B1 DUP4 PUSH2 0x4E1 JUMP JUMPDEST SWAP3 POP POP PUSH1 0x1 DUP2 ADD SWAP1 POP PUSH2 0x592 JUMP JUMPDEST POP POP POP POP POP POP JUMP JUMPDEST PUSH1 0x0 PUSH2 0x5D3 DUP4 DUP4 PUSH2 0x570 JUMP JUMPDEST PUSH1 0x40 DUP4 ADD SWAP1 POP SWAP3 SWAP2 POP POP JUMP JUMPDEST PUSH1 0x0 PUSH1 0x20 DUP3 ADD SWAP1 POP SWAP2 SWAP1 POP JUMP JUMPDEST PUSH2 0x5F5 DUP2 PUSH2 0x545 JUMP JUMPDEST PUSH2 0x5FF DUP2 DUP5 PUSH2 0x550 JUMP JUMPDEST SWAP3 POP PUSH2 0x60A DUP3 PUSH2 0x55B JUMP JUMPDEST DUP1 PUSH1 0x0 JUMPDEST DUP4 DUP2 LT ISZERO PUSH2 0x63B JUMPI DUP2 MLOAD PUSH2 0x622 DUP8 DUP3 PUSH2 0x5C7 JUMP JUMPDEST SWAP7 POP PUSH2 0x62D DUP4 PUSH2 0x5DF JUMP JUMPDEST SWAP3 POP POP PUSH1 0x1 DUP2 ADD SWAP1 POP PUSH2 0x60E JUMP JUMPDEST POP POP POP POP POP POP JUMP JUMPDEST PUSH1 0x0 PUSH1 0x8 SWAP1 POP SWAP2 SWAP1 POP JUMP JUMPDEST PUSH1 0x0 DUP2 SWAP1 POP SWAP3 SWAP2 POP POP JUMP JUMPDEST PUSH1 0x0 DUP2 SWAP1 POP SWAP2 SWAP1 POP JUMP JUMPDEST PUSH1 0x0 PUSH1 0x20 DUP3 ADD SWAP1 POP SWAP2 SWAP1 POP JUMP JUMPDEST PUSH2 0x679 DUP2 PUSH2 0x643 JUMP JUMPDEST PUSH2 0x683 DUP2 DUP5 PUSH2 0x64E JUMP JUMPDEST SWAP3 POP PUSH2 0x68E DUP3 PUSH2 0x659 JUMP JUMPDEST DUP1 PUSH1 0x0 JUMPDEST DUP4 DUP2 LT ISZERO PUSH2 0x6BF JUMPI DUP2 MLOAD PUSH2 0x6A6 DUP8 DUP3 PUSH2 0x4C9 JUMP JUMPDEST SWAP7 POP PUSH2 0x6B1 DUP4 PUSH2 0x663 JUMP JUMPDEST SWAP3 POP POP PUSH1 0x1 DUP2 ADD SWAP1 POP PUSH2 0x692 JUMP JUMPDEST POP POP POP POP POP POP JUMP JUMPDEST PUSH1 0x0 PUSH2 0x200 DUP3 ADD SWAP1 POP PUSH2 0x6DD PUSH1 0x0 DUP4 ADD DUP8 PUSH2 0x4EE JUMP JUMPDEST PUSH2 0x6EA PUSH1 0x40 DUP4 ADD DUP7 PUSH2 0x5EC JUMP JUMPDEST PUSH2 0x6F7 PUSH1 0xC0 DUP4 ADD DUP6 PUSH2 0x4EE JUMP JUMPDEST PUSH2 0x705 PUSH2 0x100 DUP4 ADD DUP5 PUSH2 0x670 JUMP JUMPDEST SWAP6 SWAP5 POP POP POP POP POP JUMP JUMPDEST PUSH2 0x717 DUP2 PUSH2 0x464 JUMP JUMPDEST DUP2 EQ PUSH2 0x722 JUMPI PUSH1 0x0 DUP1 REVERT JUMPDEST POP JUMP JUMPDEST PUSH1 0x0 DUP2 MLOAD SWAP1 POP PUSH2 0x734 DUP2 PUSH2 0x70E JUMP JUMPDEST SWAP3 SWAP2 POP POP JUMP JUMPDEST PUSH1 0x0 PUSH1 0x20 DUP3 DUP5 SUB SLT ISZERO PUSH2 0x750 JUMPI PUSH2 0x74F PUSH2 0x117 JUMP JUMPDEST JUMPDEST PUSH1 0x0 PUSH2 0x75E DUP5 DUP3 DUP6 ADD PUSH2 0x725 JUMP JUMPDEST SWAP2 POP POP SWAP3 SWAP2 POP POP JUMP INVALID LOG2 PUSH5 0x6970667358 0x22 SLT KECCAK256 DUP10 PUSH1 0xC PUSH5 0xF4948C3DAF STATICCALL PREVRANDAO CODECOPY MLOAD DUP10 0xD1 0x23 NUMBER EXTCODESIZE DUP14 0xCE CALLER ADD 0xE XOR INVALID REVERT 0xB7 0xD6 CALLCODE 0xB5 PUSH3 0xF46473 PUSH16 0x6C634300081200330000000000000000 "},"methodIdentifiers":{"verifyHint(uint256[2],uint256[2][2],uint256[2],uint256[8])":"df870d53"}}}}}