{
  "_format": "hh-sol-artifact-1",
  "contractName": "MasterMindVerifier",
  "sourceName": "contracts/GuessVerifier.sol",
  "abi": [
    {
      "inputs": [
        {
          "internalType": "address",
          "name": "_verifier",
          "type": "address"
        }
      ],
      "stateMutability": "nonpayable",
      "type": "constructor"
    },
    {
      "inputs": [
        {
          "internalType": "uint256[2]",
          "name": "a",
          "type": "uint256[2]"
        },
        {
          "internalType": "uint256[2][2]",
          "name": "b",
          "type": "uint256[2][2]"
        },
        {
          "internalType": "uint256[2]",
          "name": "c",
          "type": "uint256[2]"
        },
        {
          "internalType": "uint256[8]",
          "name": "input",
          "type": "uint256[8]"
        }
      ],
      "name": "verifyHint",
      "outputs": [
        {
          "internalType": "bool",
          "name": "r",
          "type": "bool"
        }
      ],
      "stateMutability": "view",
      "type": "function"
    }
  ],
  "bytecode": "0x608060405234801561001057600080fd5b506040516108b43803806108b4833981810160405281019061003291906100db565b806000806101000a81548173ffffffffffffffffffffffffffffffffffffffff021916908373ffffffffffffffffffffffffffffffffffffffff16021790555050610108565b600080fd5b600073ffffffffffffffffffffffffffffffffffffffff82169050919050565b60006100a88261007d565b9050919050565b6100b88161009d565b81146100c357600080fd5b50565b6000815190506100d5816100af565b92915050565b6000602082840312156100f1576100f0610078565b5b60006100ff848285016100c6565b91505092915050565b61079d806101176000396000f3fe608060405234801561001057600080fd5b506004361061002b5760003560e01c8063df870d5314610030575b600080fd5b61004a600480360381019061004591906103fb565b610060565b604051610057919061047f565b60405180910390f35b60008060009054906101000a900473ffffffffffffffffffffffffffffffffffffffff1673ffffffffffffffffffffffffffffffffffffffff1663c9219a7a868686866040518563ffffffff1660e01b81526004016100c294939291906106c7565b602060405180830381865afa1580156100df573d6000803e3d6000fd5b505050506040513d601f19601f82011682018060405250810190610103919061073a565b9050949350505050565b6000604051905090565b600080fd5b600080fd5b6000601f19601f8301169050919050565b7f4e487b7100000000000000000000000000000000000000000000000000000000600052604160045260246000fd5b61016a82610121565b810181811067ffffffffffffffff8211171561018957610188610132565b5b80604052505050565b600061019c61010d565b90506101a88282610161565b919050565b600067ffffffffffffffff8211156101c8576101c7610132565b5b602082029050919050565b600080fd5b6000819050919050565b6101eb816101d8565b81146101f657600080fd5b50565b600081359050610208816101e2565b92915050565b600061022161021c846101ad565b610192565b9050806020840283018581111561023b5761023a6101d3565b5b835b81811015610264578061025088826101f9565b84526020840193505060208101905061023d565b5050509392505050565b600082601f8301126102835761028261011c565b5b600261029084828561020e565b91505092915050565b600067ffffffffffffffff8211156102b4576102b3610132565b5b602082029050919050565b60006102d26102cd84610299565b610192565b905080604084028301858111156102ec576102eb6101d3565b5b835b818110156103155780610301888261026e565b8452602084019350506040810190506102ee565b5050509392505050565b600082601f8301126103345761033361011c565b5b60026103418482856102bf565b91505092915050565b600067ffffffffffffffff82111561036557610364610132565b5b602082029050919050565b600061038361037e8461034a565b610192565b9050806020840283018581111561039d5761039c6101d3565b5b835b818110156103c657806103b288826101f9565b84526020840193505060208101905061039f565b5050509392505050565b600082601f8301126103e5576103e461011c565b5b60086103f2848285610370565b91505092915050565b600080600080610200858703121561041657610415610117565b5b60006104248782880161026e565b94505060406104358782880161031f565b93505060c06104468782880161026e565b925050610100610458878288016103d0565b91505092959194509250565b60008115159050919050565b61047981610464565b82525050565b60006020820190506104946000830184610470565b92915050565b600060029050919050565b600081905092915050565b6000819050919050565b6104c3816101d8565b82525050565b60006104d583836104ba565b60208301905092915050565b6000602082019050919050565b6104f78161049a565b61050181846104a5565b925061050c826104b0565b8060005b8381101561053d57815161052487826104c9565b965061052f836104e1565b925050600181019050610510565b505050505050565b600060029050919050565b600081905092915050565b6000819050919050565b600081905092915050565b6105798161049a565b6105838184610565565b925061058e826104b0565b8060005b838110156105bf5781516105a687826104c9565b96506105b1836104e1565b925050600181019050610592565b505050505050565b60006105d38383610570565b60408301905092915050565b6000602082019050919050565b6105f581610545565b6105ff8184610550565b925061060a8261055b565b8060005b8381101561063b57815161062287826105c7565b965061062d836105df565b92505060018101905061060e565b505050505050565b600060089050919050565b600081905092915050565b6000819050919050565b6000602082019050919050565b61067981610643565b610683818461064e565b925061068e82610659565b8060005b838110156106bf5781516106a687826104c9565b96506106b183610663565b925050600181019050610692565b505050505050565b6000610200820190506106dd60008301876104ee565b6106ea60408301866105ec565b6106f760c08301856104ee565b610705610100830184610670565b95945050505050565b61071781610464565b811461072257600080fd5b50565b6000815190506107348161070e565b92915050565b6000602082840312156107505761074f610117565b5b600061075e84828501610725565b9150509291505056fea264697066735822122089600c64f4948c3daffa44395189d123433b8dce33010e18fefdb7d6f2b562f464736f6c63430008120033",
  "linkReferences": {},
  "deployedLinkReferences": {}
}