{
  "_format": "hh-sol-artifact-1",
  "contractName": "MasterMind",
  "sourceName": "contracts/MasterMind.sol",
  "abi": [
    {
      "inputs": [
        {
          "internalType": "string",
          "name": "_Combination",
          "type": "string"
        }
      ],
      "stateMutability": "nonpayable",
      "type": "constructor"
    },
    {
      "inputs": [],
      "name": "generate_combination",
      "outputs": [],
      "stateMutability": "nonpayable",
      "type": "function"
    },
    {
      "inputs": [],
      "name": "getNewCombination",
      "outputs": [
        {
          "internalType": "string",
          "name": "",
          "type": "string"
        }
      ],
      "stateMutability": "view",
      "type": "function"
    },
    {
      "inputs": [
        {
          "internalType": "string",
          "name": "userCombination",
          "type": "string"
        }
      ],
      "name": "getProgress",
      "outputs": [],
      "stateMutability": "nonpayable",
      "type": "function"
    },
    {
      "inputs": [],
      "name": "noColors",
      "outputs": [
        {
          "internalType": "uint256",
          "name": "",
          "type": "uint256"
        }
      ],
      "stateMutability": "view",
      "type": "function"
    },
    {
      "inputs": [],
      "name": "reset_mapping",
      "outputs": [],
      "stateMutability": "nonpayable",
      "type": "function"
    },
    {
      "inputs": [],
      "name": "returnProgress",
      "outputs": [
        {
          "internalType": "string",
          "name": "",
          "type": "string"
        }
      ],
      "stateMutability": "view",
      "type": "function"
    },
    {
      "inputs": [
        {
          "internalType": "string",
          "name": "sol",
          "type": "string"
        }
      ],
      "name": "set_combination",
      "outputs": [],
      "stateMutability": "nonpayable",
      "type": "function"
    },
    {
      "inputs": [],
      "name": "size",
      "outputs": [
        {
          "internalType": "uint256",
          "name": "",
          "type": "uint256"
        }
      ],
      "stateMutability": "view",
      "type": "function"
    },
    {
      "inputs": [
        {
          "internalType": "string",
          "name": "s",
          "type": "string"
        }
      ],
      "name": "stringToUint",
      "outputs": [
        {
          "internalType": "uint256",
          "name": "result",
          "type": "uint256"
        }
      ],
      "stateMutability": "nonpayable",
      "type": "function"
    },
    {
      "inputs": [],
      "name": "updateTurn",
      "outputs": [
        {
          "internalType": "bool",
          "name": "success",
          "type": "bool"
        }
      ],
      "stateMutability": "nonpayable",
      "type": "function"
    },
    {
      "inputs": [
        {
          "internalType": "string",
          "name": "userCombination",
          "type": "string"
        }
      ],
      "name": "verifyCombination",
      "outputs": [
        {
          "internalType": "bool",
          "name": "success",
          "type": "bool"
        }
      ],
      "stateMutability": "view",
      "type": "function"
    }
  ],
  "bytecode": "0x608060405260008055600660015560046002556040518060200160405280600081525060049081620000329190620005a6565b506000600555600a60065560015467ffffffffffffffff8111156200005c576200005b62000337565b5b6040519080825280602002602001820160405280156200008b5781602001602082028036833780820191505090505b50600c9080519060200190620000a3929190620002bb565b50600467ffffffffffffffff811115620000c257620000c162000337565b5b604051908082528060200260200182016040528015620000f15781602001602082028036833780820191505090505b50600d908051906020019062000109929190620002bb565b50600467ffffffffffffffff81111562000128576200012762000337565b5b604051908082528060200260200182016040528015620001575781602001602082028036833780820191505090505b50600e90805190602001906200016f929190620002bb565b503480156200017d57600080fd5b5060405162002682380380620026828339818101604052810190620001a39190620007f1565b620001d3604051806060016040528060228152602001620026606022913982620001ec60201b6200103f1760201c565b8060039081620001e49190620005a6565b5050620008cf565b6200028e82826040516024016200020592919062000894565b6040516020818303038152906040527f4b5c4277000000000000000000000000000000000000000000000000000000007bffffffffffffffffffffffffffffffffffffffffffffffffffffffff19166020820180517bffffffffffffffffffffffffffffffffffffffffffffffffffffffff83818316178352505050506200029260201b60201c565b5050565b60008151905060006a636f6e736f6c652e6c6f679050602083016000808483855afa5050505050565b828054828255906000526020600020908101928215620002fa579160200282015b82811115620002f9578251825591602001919060010190620002dc565b5b5090506200030991906200030d565b5090565b5b80821115620003285760008160009055506001016200030e565b5090565b600081519050919050565b7f4e487b7100000000000000000000000000000000000000000000000000000000600052604160045260246000fd5b7f4e487b7100000000000000000000000000000000000000000000000000000000600052602260045260246000fd5b60006002820490506001821680620003ae57607f821691505b602082108103620003c457620003c362000366565b5b50919050565b60008190508160005260206000209050919050565b60006020601f8301049050919050565b600082821b905092915050565b6000600883026200042e7fffffffffffffffffffffffffffffffffffffffffffffffffffffffffffffffff82620003ef565b6200043a8683620003ef565b95508019841693508086168417925050509392505050565b6000819050919050565b6000819050919050565b600062000487620004816200047b8462000452565b6200045c565b62000452565b9050919050565b6000819050919050565b620004a38362000466565b620004bb620004b2826200048e565b848454620003fc565b825550505050565b600090565b620004d2620004c3565b620004df81848462000498565b505050565b5b818110156200050757620004fb600082620004c8565b600181019050620004e5565b5050565b601f82111562000556576200052081620003ca565b6200052b84620003df565b810160208510156200053b578190505b620005536200054a85620003df565b830182620004e4565b50505b505050565b600082821c905092915050565b60006200057b600019846008026200055b565b1980831691505092915050565b600062000596838362000568565b9150826002028217905092915050565b620005b1826200032c565b67ffffffffffffffff811115620005cd57620005cc62000337565b5b620005d9825462000395565b620005e68282856200050b565b600060209050601f8311600181146200061e576000841562000609578287015190505b62000615858262000588565b86555062000685565b601f1984166200062e86620003ca565b60005b82811015620006585784890151825560018201915060208501945060208101905062000631565b8683101562000678578489015162000674601f89168262000568565b8355505b6001600288020188555050505b505050505050565b6000604051905090565b600080fd5b600080fd5b600080fd5b600080fd5b6000601f19601f8301169050919050565b620006c782620006ab565b810181811067ffffffffffffffff82111715620006e957620006e862000337565b5b80604052505050565b6000620006fe6200068d565b90506200070c8282620006bc565b919050565b600067ffffffffffffffff8211156200072f576200072e62000337565b5b6200073a82620006ab565b9050602081019050919050565b60005b83811015620007675780820151818401526020810190506200074a565b60008484015250505050565b60006200078a620007848462000711565b620006f2565b905082815260208101848484011115620007a957620007a8620006a6565b5b620007b684828562000747565b509392505050565b600082601f830112620007d657620007d5620006a1565b5b8151620007e884826020860162000773565b91505092915050565b6000602082840312156200080a576200080962000697565b5b600082015167ffffffffffffffff8111156200082b576200082a6200069c565b5b6200083984828501620007be565b91505092915050565b600082825260208201905092915050565b600062000860826200032c565b6200086c818562000842565b93506200087e81856020860162000747565b6200088981620006ab565b840191505092915050565b60006040820190508181036000830152620008b0818562000853565b90508181036020830152620008c6818462000853565b90509392505050565b611d8180620008df6000396000f3fe608060405234801561001057600080fd5b50600436106100a95760003560e01c8063949d225d11610071578063949d225d14610142578063ac50a2e414610160578063b663a3fa1461017c578063c592949514610186578063c5d9b84a146101b6578063dc03b8a1146101d2576100a9565b80631bd95155146100ae57806320d9346e146100de578063583c7e3c146100fc5780636a5f8e4d1461011a5780637327619414610138575b600080fd5b6100c860048036038101906100c391906114cf565b6101f0565b6040516100d59190611531565b60405180910390f35b6100e661028a565b6040516100f391906115cb565b60405180910390f35b6101046103e5565b6040516101119190611531565b60405180910390f35b6101226103eb565b60405161012f91906115cb565b60405180910390f35b61014061047d565b005b61014a61076e565b6040516101579190611531565b60405180910390f35b61017a600480360381019061017591906114cf565b610774565b005b610184610cab565b005b6101a0600480360381019061019b91906114cf565b610d38565b6040516101ad9190611608565b60405180910390f35b6101d060048036038101906101cb91906114cf565b610ffb565b005b6101da61100e565b6040516101e79190611608565b60405180910390f35b6000808290506000809250600090505b815181101561028357600082828151811061021e5761021d611623565b5b602001015160f81c60f81b60f81c60ff16905060308110158015610243575060398111155b1561026f576030816102559190611681565b600a8561026291906116b5565b61026c91906116f7565b93505b50808061027b9061172b565b915050610200565b5050919050565b60606103556040518060400160405280600281526020017f2573000000000000000000000000000000000000000000000000000000000000815250600380546102d2906117a2565b80601f01602080910402602001604051908101604052809291908181526020018280546102fe906117a2565b801561034b5780601f106103205761010080835404028352916020019161034b565b820191906000526020600020905b81548152906001019060200180831161032e57829003601f168201915b505050505061103f565b60038054610362906117a2565b80601f016020809104026020016040519081016040528092919081815260200182805461038e906117a2565b80156103db5780601f106103b0576101008083540402835291602001916103db565b820191906000526020600020905b8154815290600101906020018083116103be57829003601f168201915b5050505050905090565b60015481565b6060600480546103fa906117a2565b80601f0160208091040260200160405190810160405280929190818152602001828054610426906117a2565b80156104735780601f1061044857610100808354040283529160200191610473565b820191906000526020600020905b81548152906001019060200180831161045657829003601f168201915b5050505050905090565b600060025467ffffffffffffffff81111561049b5761049a6113a4565b5b6040519080825280602002602001820160405280156104c95781602001602082028036833780820191505090505b509050600060405180602001604052806000815250905060005b60025481101561057a576001546104f86110db565b6105029190611802565b83828151811061051557610514611623565b5b6020026020010181815250508161054584838151811061053857610537611623565b5b602002602001015161112b565b60405160200161055692919061186f565b604051602081830303815290604052915080806105729061172b565b9150506104e3565b506105ba6040518060400160405280600281526020017f25730000000000000000000000000000000000000000000000000000000000008152508261103f565b80600390816105c99190611a3f565b506000600380546105d9906117a2565b80601f0160208091040260200160405190810160405280929190818152602001828054610605906117a2565b80156106525780601f1061062757610100808354040283529160200191610652565b820191906000526020600020905b81548152906001019060200180831161063557829003601f168201915b505050505090506000600167ffffffffffffffff811115610676576106756113a4565b5b6040519080825280601f01601f1916602001820160405280156106a85781602001600182028036833780820191505090505b50905060005b8251811015610767578281815181106106ca576106c9611623565b5b602001015160f81c60f81b826000815181106106e9576106e8611623565b5b60200101907effffffffffffffffffffffffffffffffffffffffffffffffffffffffffffff1916908160001a905350600c610723836101f0565b8154811061073457610733611623565b5b90600052602060002001600081548092919061074f9061172b565b9190505550808061075f9061172b565b9150506106ae565b5050505050565b60025481565b61077c610cab565b6000819050600060038054610790906117a2565b80601f01602080910402602001604051908101604052809291908181526020018280546107bc906117a2565b80156108095780601f106107de57610100808354040283529160200191610809565b820191906000526020600020905b8154815290600101906020018083116107ec57829003601f168201915b505050505090506000600167ffffffffffffffff81111561082d5761082c6113a4565b5b6040519080825280601f01601f19166020018201604052801561085f5781602001600182028036833780820191505090505b50905060005b83518110156109fe578360008151811061088257610881611623565b5b602001015160f81c60f81b826000815181106108a1576108a0611623565b5b60200101907effffffffffffffffffffffffffffffffffffffffffffffffffffffffffffff1916908160001a9053506001600d82815481106108e6576108e5611623565b5b906000526020600020018190555083818151811061090757610906611623565b5b602001015160f81c60f81b7effffffffffffffffffffffffffffffffffffffffffffffffffffffffffffff191683828151811061094757610946611623565b5b602001015160f81c60f81b7effffffffffffffffffffffffffffffffffffffffffffffffffffffffffffff1916036109c6576002600e828154811061098f5761098e611623565b5b90600052602060002001819055506000600d82815481106109b3576109b2611623565b5b90600052602060002001819055506109eb565b6000600e82815481106109dc576109db611623565b5b90600052602060002001819055505b80806109f69061172b565b915050610865565b5060005b8351811015610b635760005b8451811015610b4f57838181518110610a2a57610a29611623565b5b602001015160f81c60f81b7effffffffffffffffffffffffffffffffffffffffffffffffffffffffffffff1916858381518110610a6a57610a69611623565b5b602001015160f81c60f81b7effffffffffffffffffffffffffffffffffffffffffffffffffffffffffffff1916148015610ac357506002600e8381548110610ab557610ab4611623565b5b906000526020600020015414155b8015610aee57506000600d8281548110610ae057610adf611623565b5b906000526020600020015414155b15610b3c576001600e8381548110610b0957610b08611623565b5b90600052602060002001819055506000600d8281548110610b2d57610b2c611623565b5b90600052602060002001819055505b8080610b479061172b565b915050610a0e565b508080610b5b9061172b565b915050610a02565b5060005b8351811015610bdb576004610b99600e8381548110610b8957610b88611623565b5b906000526020600020015461112b565b604051602001610baa929190611b94565b60405160208183030381529060405260049081610bc79190611a3f565b508080610bd39061172b565b915050610b67565b50610ca56040518060400160405280600881526020017f48494e543a20257300000000000000000000000000000000000000000000000081525060048054610c22906117a2565b80601f0160208091040260200160405190810160405280929190818152602001828054610c4e906117a2565b8015610c9b5780601f10610c7057610100808354040283529160200191610c9b565b820191906000526020600020905b815481529060010190602001808311610c7e57829003601f168201915b505050505061103f565b50505050565b60005b600d80549050811015610d16576000600d8281548110610cd157610cd0611623565b5b90600052602060002001819055506000600e8281548110610cf557610cf4611623565b5b90600052602060002001819055508080610d0e9061172b565b915050610cae565b506040518060200160405280600081525060049081610d359190611a3f565b50565b600080829050600060038054610d4d906117a2565b80601f0160208091040260200160405190810160405280929190818152602001828054610d79906117a2565b8015610dc65780601f10610d9b57610100808354040283529160200191610dc6565b820191906000526020600020905b815481529060010190602001808311610da957829003601f168201915b505050505090506000600167ffffffffffffffff811115610dea57610de96113a4565b5b6040519080825280601f01601f191660200182016040528015610e1c5781602001600182028036833780820191505090505b5090506000600167ffffffffffffffff811115610e3c57610e3b6113a4565b5b6040519080825280601f01601f191660200182016040528015610e6e5781602001600182028036833780820191505090505b50905060006001905060005b8451811015610fe457858181518110610e9657610e95611623565b5b602001015160f81c60f81b84600081518110610eb557610eb4611623565b5b60200101907effffffffffffffffffffffffffffffffffffffffffffffffffffffffffffff1916908160001a905350848181518110610ef757610ef6611623565b5b602001015160f81c60f81b83600081518110610f1657610f15611623565b5b60200101907effffffffffffffffffffffffffffffffffffffffffffffffffffffffffffff1916908160001a90535082600081518110610f5957610f58611623565b5b602001015160f81c60f81b7effffffffffffffffffffffffffffffffffffffffffffffffffffffffffffff191684600081518110610f9a57610f99611623565b5b602001015160f81c60f81b7effffffffffffffffffffffffffffffffffffffffffffffffffffffffffffff191614610fd157600091505b8080610fdc9061172b565b915050610e7a565b50610fee816112b3565b8095505050505050919050565b806003908161100a9190611a3f565b5050565b60006005546006541161102057600080fd5b600560008154809291906110339061172b565b91905055506001905090565b6110d78282604051602401611055929190611bb8565b6040516020818303038152906040527f4b5c4277000000000000000000000000000000000000000000000000000000007bffffffffffffffffffffffffffffffffffffffffffffffffffffffff19166020820180517bffffffffffffffffffffffffffffffffffffffffffffffffffffffff838183161783525050505061134c565b5050565b60008060008154809291906110ef9061172b565b919050555044423360005460405160200161110d9493929190611c8a565b6040516020818303038152906040528051906020012060001c905090565b606060008203611172576040518060400160405280600181526020017f300000000000000000000000000000000000000000000000000000000000000081525090506112ae565b600082905060005b600082146111a457808061118d9061172b565b915050600a8261119d9190611cd8565b915061117a565b60008167ffffffffffffffff8111156111c0576111bf6113a4565b5b6040519080825280601f01601f1916602001820160405280156111f25781602001600182028036833780820191505090505b50905060008290505b600086146112a6576001816112109190611681565b90506000600a80886112229190611cd8565b61122c91906116b5565b876112379190611681565b60306112439190611d16565b905060008160f81b90508084848151811061126157611260611623565b5b60200101907effffffffffffffffffffffffffffffffffffffffffffffffffffffffffffff1916908160001a905350600a8861129d9190611cd8565b975050506111fb565b819450505050505b919050565b611349816040516024016112c79190611608565b6040516020818303038152906040527f32458eed000000000000000000000000000000000000000000000000000000007bffffffffffffffffffffffffffffffffffffffffffffffffffffffff19166020820180517bffffffffffffffffffffffffffffffffffffffffffffffffffffffff838183161783525050505061134c565b50565b60008151905060006a636f6e736f6c652e6c6f679050602083016000808483855afa5050505050565b6000604051905090565b600080fd5b600080fd5b600080fd5b600080fd5b6000601f19601f8301169050919050565b7f4e487b7100000000000000000000000000000000000000000000000000000000600052604160045260246000fd5b6113dc82611393565b810181811067ffffffffffffffff821117156113fb576113fa6113a4565b5b80604052505050565b600061140e611375565b905061141a82826113d3565b919050565b600067ffffffffffffffff82111561143a576114396113a4565b5b61144382611393565b9050602081019050919050565b82818337600083830152505050565b600061147261146d8461141f565b611404565b90508281526020810184848401111561148e5761148d61138e565b5b611499848285611450565b509392505050565b600082601f8301126114b6576114b5611389565b5b81356114c684826020860161145f565b91505092915050565b6000602082840312156114e5576114e461137f565b5b600082013567ffffffffffffffff81111561150357611502611384565b5b61150f848285016114a1565b91505092915050565b6000819050919050565b61152b81611518565b82525050565b60006020820190506115466000830184611522565b92915050565b600081519050919050565b600082825260208201905092915050565b60005b8381101561158657808201518184015260208101905061156b565b60008484015250505050565b600061159d8261154c565b6115a78185611557565b93506115b7818560208601611568565b6115c081611393565b840191505092915050565b600060208201905081810360008301526115e58184611592565b905092915050565b60008115159050919050565b611602816115ed565b82525050565b600060208201905061161d60008301846115f9565b92915050565b7f4e487b7100000000000000000000000000000000000000000000000000000000600052603260045260246000fd5b7f4e487b7100000000000000000000000000000000000000000000000000000000600052601160045260246000fd5b600061168c82611518565b915061169783611518565b92508282039050818111156116af576116ae611652565b5b92915050565b60006116c082611518565b91506116cb83611518565b92508282026116d981611518565b915082820484148315176116f0576116ef611652565b5b5092915050565b600061170282611518565b915061170d83611518565b925082820190508082111561172557611724611652565b5b92915050565b600061173682611518565b91507fffffffffffffffffffffffffffffffffffffffffffffffffffffffffffffffff820361176857611767611652565b5b600182019050919050565b7f4e487b7100000000000000000000000000000000000000000000000000000000600052602260045260246000fd5b600060028204905060018216806117ba57607f821691505b6020821081036117cd576117cc611773565b5b50919050565b7f4e487b7100000000000000000000000000000000000000000000000000000000600052601260045260246000fd5b600061180d82611518565b915061181883611518565b925082611828576118276117d3565b5b828206905092915050565b600081905092915050565b60006118498261154c565b6118538185611833565b9350611863818560208601611568565b80840191505092915050565b600061187b828561183e565b9150611887828461183e565b91508190509392505050565b60008190508160005260206000209050919050565b60006020601f8301049050919050565b600082821b905092915050565b6000600883026118f57fffffffffffffffffffffffffffffffffffffffffffffffffffffffffffffffff826118b8565b6118ff86836118b8565b95508019841693508086168417925050509392505050565b6000819050919050565b600061193c61193761193284611518565b611917565b611518565b9050919050565b6000819050919050565b61195683611921565b61196a61196282611943565b8484546118c5565b825550505050565b600090565b61197f611972565b61198a81848461194d565b505050565b5b818110156119ae576119a3600082611977565b600181019050611990565b5050565b601f8211156119f3576119c481611893565b6119cd846118a8565b810160208510156119dc578190505b6119f06119e8856118a8565b83018261198f565b50505b505050565b600082821c905092915050565b6000611a16600019846008026119f8565b1980831691505092915050565b6000611a2f8383611a05565b9150826002028217905092915050565b611a488261154c565b67ffffffffffffffff811115611a6157611a606113a4565b5b611a6b82546117a2565b611a768282856119b2565b600060209050601f831160018114611aa95760008415611a97578287015190505b611aa18582611a23565b865550611b09565b601f198416611ab786611893565b60005b82811015611adf57848901518255600182019150602085019450602081019050611aba565b86831015611afc5784890151611af8601f891682611a05565b8355505b6001600288020188555050505b505050505050565b60008154611b1e816117a2565b611b288186611833565b94506001821660008114611b435760018114611b5857611b8b565b60ff1983168652811515820286019350611b8b565b611b6185611893565b60005b83811015611b8357815481890152600182019150602081019050611b64565b838801955050505b50505092915050565b6000611ba08285611b11565b9150611bac828461183e565b91508190509392505050565b60006040820190508181036000830152611bd28185611592565b90508181036020830152611be68184611592565b90509392505050565b6000819050919050565b611c0a611c0582611518565b611bef565b82525050565b600073ffffffffffffffffffffffffffffffffffffffff82169050919050565b6000611c3b82611c10565b9050919050565b60008160601b9050919050565b6000611c5a82611c42565b9050919050565b6000611c6c82611c4f565b9050919050565b611c84611c7f82611c30565b611c61565b82525050565b6000611c968287611bf9565b602082019150611ca68286611bf9565b602082019150611cb68285611c73565b601482019150611cc68284611bf9565b60208201915081905095945050505050565b6000611ce382611518565b9150611cee83611518565b925082611cfe57611cfd6117d3565b5b828204905092915050565b600060ff82169050919050565b6000611d2182611d09565b9150611d2c83611d09565b9250828201905060ff811115611d4557611d44611652565b5b9291505056fea26469706673582212209ad907ada922ea2cff3bce8355d7d7a43661c4c542bcc5d2eafd1db01f58ea3664736f6c634300081200334465706c6f79696e67206120477265657465722077697468206772656574696e673a",
  "linkReferences": {},
  "deployedLinkReferences": {}
}